:100000000C9469020C9486020C9486020C9486026D
:100010000C9486020C9486020C9486020C94860240
:100020000C9486020C9486020C94920D0C94D40CC1
:100030000C942E1C0C9486020C9486020C9486025E
:100040000C9486020C9486020C9486020C94860210
:100050000C9486020C94ED1B0C9486020C94860280
:100060000C9486020C9486020C9486020C948602F0
:100070000C9486020C9486020C9486020C948602E0
:100080000C9486020C9486020C9486020C948602D0
:100090000C9486020C9486020C9486020C948602C0
:1000A0000C9486020C9486020C94860296039B03A1
:1000B000A50399039E03A303A103CF04D204D5048F
:1000C000D804DB04DE04E1041007100743074307EC
:1000D000C007DE07E208E208E30757086808680877
:1000E000E70A0E0BBC0C0E0BBC0C5A0B7D0BBC0CA8
:1000F000720C820C05010980A101850319012AB740
:1001000000150126B700950175108100C0050C0986
:1001100001A101850419012AA002150126A002955A
:100120000175108100C005010906A10185060507BA
:1001300019E029E7150025019508750181020507D9
:10014000190029EF1500250195F0750181020508B8
:100150001901290595057501910295017503910114
:10016000C005010902A1010901A100050919012920
:10017000081500250195087501810205010930095E
:10018000311581257F95027508810609381581256D
:100190007F950175088106050C0A38021581257FB7
:1001A000950175088106C0C00660FF0961A10109BB
:1001B00062150026FF00952075088102096315006D
:1001C00026FF00952075089102C005010906A101CE
:1001D000050719E029E71500250195087501810239
:1001E0009501750881010507190029FF150026FFF3
:1001F00000950675088100050819012905150025D7
:1002000001950575019102950175039101C00902DF
:100210007400040100A0FA090400000103010100B8
:100220000921110100012244000705810308000192
:10023000090401000203000000092111010001224C
:1002400022000705830320000107050403200001A5
:100250000904020001030102000921110100012229
:100260004700070582030800010904030001030099
:100270000000092111010001226D000705850320FE
:1002800000011201000200000008973274490100C9
:100290000102000116034500720067006F00440070
:1002A0006F007800200045005A00000028035A0023
:1002B00053004100200054006500630068006E0098
:1002C0006F006C006F006700790020004C00610037
:1002D0006200730000000403090429002B00737CF2
:1002E000E100352100001E00140004001D0034242C
:1002F0004D001F001A0016001B00E300E300200061
:100300000800070006002F002C002100150009003E
:10031000190030004A00220017000A000500000002
:10032000E10061522E0000004C000000000F6152FD
:100330002D00000028000000E20023001C000B003C
:10034000110000002921240018000D0010005000A9
:100350004B0025000C000E00360051002C0026003A
:1003600012000F00370052002A002700130033420A
:1003700038314F004E002A0031002800E50021529C
:1003800000002900010001000100010000003A0006
:100390001E02200222022E00037E3B001F022102C9
:1003A0002302010001003C002F0226022F00010061
:1003B00001003D00300227023000010001003E0034
:1003C000310235003502000001000100010000008B
:1003D0000100000001000100010000000100000018
:1003E00001003F00520051002402000001004000C3
:1003F000240021001E000100010041002500220010
:100400001F003700010042002600230020002700C3
:100410000100430025022E0231002E00010044009D
:100420004500010001000100000001000100010081
:1004300001000100000001000100010001000100B5
:10044000010001000100CF000100010001000100D6
:10045000CD00CE000100D100010001000100D0005C
:100460000100D200010001000100010001000000B4
:100470000100010001000000010000000100010076
:100480000100000001000000010001000100010066
:100490000100000001000100010001000100A900AD
:1004A0000100010001000100AC00AA00B60001003B
:1004B00001000100AB00A8000100010001000100E3
:1004C000010001000100007C0100AE0001000100FC
:1004D000000011241FBECFEFDAE0DEBFCDBF11E078
:1004E000A0E0B1E0EEEBF0E402C005900D92AA3678
:1004F000B107D9F722E0AAE6B1E001C01D92A13A06
:10050000B207E1F70E94EF0E0C945D200C940000FE
:10051000A6E0B0E0EEE8F2E00C94951E49835A8321
:1005200049815A81992361F0222351F0CA010E9426
:100530007D18182F682F89819A810E94ED1804C0B8
:10054000CA010E94B918182F69817A81812F0E94EF
:10055000CE132696E3E00C94B11E109271010E9416
:1005600089192FEF84E39CE0215080409040E1F70F
:1005700000C000009AE088E10FB6F894A895809337
:1005800060000FBE90936000FFCFA4E3B0E0EBECFF
:10059000F2E00C94921E4FA758AB69AB7AAB8BABD1
:1005A0009CAB192F911110929002DE01989687E072
:1005B000FD0111928A95E9F786E0FE01BF96019050
:1005C0000D928A95E1F7EFA4F8A80BA90023C9F0D2
:1005D00021E0A7016AA57BA5C8010E94880280913D
:1005E0009F01882371F0111102C087E001C086E0ED
:1005F0008983EA82FB828EEF8C83CE0101960E9472
:10060000C60EE8A6F9A60CA71DA787E0FE01B896BE
:10061000DE01919601900D928A95E1F7CE018196C7
:100620000E94FB1581112CC087E0FE01B196DE010E
:10063000119601900D928A95E1F76DA1662301F163
:100640002091FF0130E0C901019687709927409100
:10065000380250E08417950761F16D8397E0929F0F
:10066000D001939FB00D1124A050BE4FFE013196D2
:1006700001900D929A95E1F78093FF010E949815E1
:1006800017E0809138029091FF01891709F1189FB6
:10069000C001112480509E4F0E94FB158823C1F099
:1006A0008091380290E001968770992780933802F4
:1006B000E8CF109271010E9489191092FF011092E7
:1006C0003802E8EFF1E087E0DF011D928A95E9F753
:1006D000E496E6E00C94AE1E982F92959F7019F068
:1006E000892F24E001C020E0982F9695969511F06F
:1006F0002E5F892F982F969509F02F5F822F0895EE
:10070000CF93C82F0E946C0356985E9825982D9819
:1007100026982E9827982F9890E0FC013197E73083
:10072000F105A8F4EA5AFF4F0C94291F259A2D9A37
:100730000EC0259A2D9A269A2E9A09C0259A2D9A8E
:1007400004C0259A2D9A269A2E9A279A2F9A8C2F92
:10075000CF91089580E290E09093100180930F0173
:1007600080916C0181110EC00E94A21D81E08093D6
:100770006C012FEF83ED90E3215080409040E1F732
:1007800000C0000060E570E080E40E94A81D909326
:10079000100180930F01892B09F04EC060E570E0D5
:1007A00080E00E941B1E9093100180930F01892B03
:1007B00009F042C060E570E080E00E941B1E90934B
:1007C000100180930F01892BB9F560E570E08FE38C
:1007D0000E941B1E9093100180930F01892B61F5DD
:1007E0000E946E1E60E570E080E40E94A81D909358
:1007F000100180930F01892BF9F460E570E08CE023
:100800000E941B1E9093100180930F01892BA1F46D
:1008100060E570E080E00E941B1E909310018093C1
:100820000F01892B49F460E570E08FE30E941B1EE5
:100830009093100180930F010E946E1E80910F0112
:100840000895CF93DF9356985E9825982D98269813
:100850002E9827982F98C8E8D0E08FEF90E09983E2
:100860008883AAE8B0E011969C938E93ECE8F0E0C0
:1008700091838083259A2D9A2FEF80E792E0215073
:1008800080409040E1F700C00000269A2E9A2FEF9A
:1008900080E792E0215080409040E1F700C00000E6
:1008A000279A2F9A2FEF80E792E0215080409040C6
:1008B000E1F700C0000025982D982FEF80E792E027
:1008C000215080409040E1F700C0000026982E980B
:1008D0002FEF80E792E0215080409040E1F700C088
:1008E000000027982F988091B20187702FEF829F88
:1008F000C00111249595879595958795992799839A
:10090000888311969C938E939183808356985E98EA
:1009100025982D9826982E9827982F98DF91CF917B
:100920000895CF93E82F873080F580910F01909143
:100930001001892B09F047C0CE2F60E570E080E4FC
:100940000E94A81D9093100180930F01892BD1F470
:1009500060E570E082E10E941B1E9093100180937D
:100960000F01892B79F481E090E001C0880FCA95CE
:10097000EAF760E570E080950E941B1E90931001DD
:1009800080930F010E946E1E1EC090E0FC013797FD
:10099000E730F105C0F4E35AFF4F0C94291F209A69
:1009A000289811C0219A29980EC0229A2A980BC023
:1009B000239A2B9808C0529A5A9805C0539A5B986C
:1009C00002C03E9A4698CF91089520982898219881
:1009D000299822982A9823982B9852985A98539895
:1009E0005B983E9846980895CF93873040F5809164
:1009F0000F0190911001892B59F560E570E081E4B9
:100A00000E94A81D9093100180930F01892B11F073
:100A1000C0E011C080E590E00E944A1E97FF05C02B
:100A20009093100180930F01F3CFC82FC0951092BF
:100A3000100110920F010E946E1E8C2F0AC09FB1F0
:100A40008FB1807F869586959370892B809501C0A4
:100A500080E0CF9108958098889A8198899A8498A7
:100A60008C9A85988D9A86988E9A87988F9A0895F1
:100A7000A0E0B0E0EEE3F5E00C948F1EFC01848171
:100A8000882309F4D6C38F0121E04081518162811E
:100A9000738195810E948802EC0181152EE79207EF
:100AA000E1F5F8018581882309F456C09091B201DF
:100AB00081E0890F8770987F853020F4892B80939F
:100AC000B20102C09093B2018091B2018770FFEF32
:100AD0008F9FC001112495958795959587959927A6
:100AE000909389008093880090938B0080938A0074
:100AF00090938D0080938C004091B2015091B3018E
:100B00006091B4017091B5018FE090E00E94F31EF6
:100B10008091B7010E9480031FC083379C47E1F496
:100B2000F8018581882309F475C380919102882397
:100B300019F00E940B1D6EC3109271010E940815DE
:100B40000E94221C88579C4E9093D6018093D50119
:100B500081E0809391025EC380919102882309F421
:100B600093C0F0907101E0905A020E94221C8857B5
:100B70009C4E9093D6018093D501F80185818823FE
:100B800009F482C08E2D8F298D7909F078C0C03488
:100B9000F2E5DF07B8F4C11522E5D20708F074C00A
:100BA000C11580E4D80748F4C11590E2D90740F593
:100BB000C63ED10509F043C067C0C115E0E5DE07B8
:100BC000B8F13DC0C03EF2E5DF07A0F4C03C22E52D
:100BD000D20708F059C0C03682E5D80780F1C03A84
:100BE00092E5D90708F450C0C43BE2E5DE0709F4FA
:100BF0004BC025C0CE0187579C47029700F544C0E3
:100C0000F8018681807FC1F48D2F8F71823169F068
:100C100028F48230A1F581EE90E012C08431A1F178
:100C2000863169F586EE92E10BC085EE90E008C052
:100C3000F8018681807F69F1CE01992701C0CE013C
:100C4000109290028832910530F48E319105D0F4E3
:100C50000497A8F00EC08D32910559F018F48A97C8
:100C600089F00DC08C34910569F08D32924051F0BD
:100C700006C082E0809390020E94151503C00E9476
:100C80000B1D02C00E941515F8018581882309F407
:100C900071C0C3302CE7D20709F459C048F4C1151C
:100CA0009CE7D907A9F0C130DC4709F456C062C0FF
:100CB000CB35FCE7DF0709F45AC0CC352CE7D20767
:100CC00009F44DC0CA35DC4709F054C081E050C07A
:100CD000109271010E9489199FEFE4E3FCE09150AA
:100CE000E040F040E1F700C00000F89481E080931C
:100CF000E00080E28093D8001092C9008FE19EE46A
:100D00000197F1F700C000001DBA109268001CBCEA
:100D100010BE1FBA10927A0010926E0010926F00EF
:100D200010927100109272001092C9001092BC00D3
:100D300014B817B81AB81DB810BA1092BC0015B87C
:100D400018B81BB81EB811BA0C94003F63C26FEFFD
:100D50007FEF80E090E00E94FF1E0E94AD02809134
:100D60006F0182FB882780F991E0892701C080E02C
:100D70000E948115F8018581C081D181882349F0C5
:100D8000CE010E947D18F82E682FCE010E94ED182A
:100D900004C0CE010E94B918F82EBE018F2D0E940A
:100DA000CE130E94EB13F82EC92FC82EF801D5815F
:100DB000E680E2949FE0E92280913902877001F198
:100DC000DD23F1F08C2F807F803469F080E28F0D7D
:100DD0008830B0F08C2F807E803229F4F1E0FF154E
:100DE00078F4EE2069F080916F0182FF09C082E003
:100DF0000E946A15809139028770DD24D394811195
:100E0000D12CBC2EB2948FE0B8228B2D90E08C3088
:100E1000910508F0D7C1FC01EC59FF4F0C94291F34
:100E20008C2F807FCF70882311F0C295C07FDD2387
:100E3000B9F0CC2309F4B4C180E28F0D883010F0F2
:100E4000C11006C090917101C92BC093710105C0FA
:100E500090919002C92BC09390020E941515A0C1D9
:100E60008F2D0E949F1ACC2309F4ACC180E28F0D14
:100E7000883088F1CC2079F1C09590919002C923F7
:100E8000C09390022BC08C2F807FCF70803211F0E6
:100E9000C295C07F8F2DCC2029F021E0C21609F425
:100EA0004CC055C080916F0182FD1BC0DD2369F0ED
:100EB000CC2339F090917101C92BC09371010E942C
:100EC000151580E00E94031B7DC180E00E949F1ADF
:100ED000CC2309F477C18C2F0E940E150E941515A2
:100EE00071C1DD2381F0EE20B1F181E0E8126AC129
:100EF00090915A028C2F8923C81709F463C1C92B1A
:100F0000C0935A025FC1E1105DC18C2F0E94B619D7
:100F100080915A029C2F982329F09C2F9095892329
:100F200080935A0280916D019C2F982309F44AC145
:100F3000C0958C2380936D0145C1DD2329F091E09C
:100F40009E1508F43FC107C0E1103CC115C0DD2368
:100F500031F0E11025C18C2F0E94BD1933C1EE2064
:100F600059F0893309F02BC1EFEFF7EE23E0E150A0
:100F7000F0402040E1F721C18C2F0E94B61922C118
:100F80008C2F86958695837019F0813061F01AC197
:100F9000DD2321F08F2D9C2F937002C080E090E024
:100FA0000E94D91C15C1DD2321F08F2D9C2F937039
:100FB00002C080E090E00E94B41C0AC16D2F8F2D0A
:100FC0000E94C71905C18C2F8370A9F5D111FEC0ED
:100FD0004F2D429546954770440F440F8F2D8F70CB
:100FE00090E09C01042E01C0220F0A94EAF7F4FE5F
:100FF00008C08FE090E001C0880F4A95EAF780951D
:1010000001C080E0C695C695C370C23069F088F40F
:101010009091B601C13019F0822B892302C0922B26
:10102000892B0E946319D2C0822B9091B601892727
:10103000F8CF822BF6CFDD2319F08C2F817001C001
:101040008695882309F4C2C04F2D42954695477076
:10105000440F440F8F2D8F7090E09C01042E01C02F
:10106000220F0A94EAF7F4FE08C08FE090E001C076
:10107000880F4A95EAF7809501C080E0C695C6952D
:10108000C370C23059F078F49091B701C13019F0B3
:10109000822B892309C0922B892B06C0822B909129
:1010A000B701892701C0822B0E9422198FC0CF70FF
:1010B000DD2339F08C2F0E9457198F2D0E94BD1906
:1010C00085C08F2D0E94B6198C2F0E944A197EC0B0
:1010D0008F2D92EFC91669F19C1538F0E0EFCE160E
:1010E00059F0F1EFCF1601F157C023EFC21641F1CD
:1010F00094EFC916A9F050C0DD2369F0E11062C079
:10110000CF7181E090E001C0880FCA95EAF7909115
:10111000B70189271FC0E1E0EE1508F453C0F0CFF6
:1011200080916F0182FD19C0DD2329F08C2F8F7112
:1011300026C0DD23D9F38C2F8F710E944A1942C03B
:10114000DD2339F0CF7181E001C0880FCA95EAF73D
:1011500001C080E00E94221935C0DD2399F0CF71D3
:101160008C2F0E94571980916F0182FF07C0F8E011
:10117000CF9FC00111248360809339028C2F0E947D
:10118000571920C081E00E946A1521E02E15D0F485
:1011900082E00E946A1516C0DD2321F0EE2031F2B4
:1011A0008F2D90CEEE2039F2893349F48FEF97EEF0
:1011B000E3E081509040E040E1F700C000008F2D57
:1011C0000E949F1A88EF8B0D843010F40E94FE1C41
:1011D000DD20A9F08091390280FD11C0F80115824F
:1011E0008695869586950E945719C8010E943805F4
:1011F000809139028695869586950E944A1920E04D
:10120000F8014081518162817381848195810E94BE
:1012100088020FC080913902877059F0F8018581EA
:10122000882339F080916F0182FF03C082E00E9421
:101230006A15CDB7DEB7E9E00C94AB1E809197013B
:1012400087FF11C08091E80082FD05C08091A10157
:101250008111F8CF11C08091E8008B770BC080918D
:10126000A101882349F08091E80080FFF8CF8091A8
:10127000E8008E778093E8000895982F973068F5FE
:101280009093E900981739F07091EC002091ED00EF
:101290005091F00003C0242F762F50E021FD02C0B2
:1012A0009F5FECCF3091EB003E7F3093EB003091AD
:1012B000ED003D7F3093ED003091EB0031603093D5
:1012C000EB007093EC002093ED005093F000209120
:1012D000EE0027FDE5CF80E008958F708093E90050
:1012E00081E0089520919D0130919E0126173707D6
:1012F00048F06115710539F42091E8002E772093AC
:10130000E80001C0B901FC0120E06115710579F127
:101310008091A1018823F1F18530F1F18091E800FD
:1013200083FD3CC08091E80082FD2EC08091E800E2
:1013300080FFEBCF2091F3008091F20090E0922BA0
:101340006115710551F08830910538F42191209391
:10135000F100615071090196F3CF21E0089709F07F
:1013600020E08091E8008E778093E800CECF2111B5
:10137000CFCF0AC08091A101882361F0853061F050
:101380008091E80083FD0AC08091E80082FFF2CFDF
:1013900080E0089582E0089583E0089581E0089553
:1013A00043E050E0BC0185E00E94C91B089545E080
:1013B00050E0BC0182E00E94C91B0895CF93DF93E7
:1013C000EC0180910601811105C048E050E0BE01AA
:1013D00081E00BC080916E0187FF03C040E285E091
:1013E00002C048E081E050E0BE010E94C91B80E2DB
:1013F000FE01A4E7B1E001900D928A95E1F7DF913B
:10140000CF910895AAE2B0E0E8E0FAE00C94951ECE
:10141000E7E9F1E08FE991E02091F10021938E1747
:101420009F07D1F780919801833009F463C030F4AD
:10143000813071F0823009F49FC0B6C08A3009F45F
:101440008BC08B3009F46EC0893009F0ADC020C06C
:1014500080919701813A09F0A7C08091E800877FC9
:101460008093E80080919B0190919C01892B21F44D
:1014700060E284E791E003C060E080E090E070E02B
:101480000E9472098091E8008B778093E8008CC0FD
:1014900080919701813209F087C080919B019091E2
:1014A0009C01009719F0039709F07EC08091E80035
:1014B000877F8093E8008091E80082FD05C08091DD
:1014C000A1018111F8CF70C02091F3008091F2004A
:1014D00090E0922B029731F48091F100813011F06D
:1014E000863021F48091F100809373018091E800AF
:1014F0008B7756C080919701813A09F055C0809151
:101500009B0190919C01892B09F04EC08091E800CD
:10151000877F8093E8008091E80080FFFCCF809176
:10152000060139C0809197018132F1F580919B01CC
:1015300090919C01892BC1F58091E800877F809371
:10154000E8000E941E098091990180930601109283
:1015500071010E94891928C080919701813221F57B
:101560008091E800877F8093E8000E941E098091A7
:101570009A018093720118C080919701813AA1F479
:101580008091E800877F8093E8008091E80080FFE9
:10159000FCCF809172018093F1008091E8008E77FA
:1015A0008093E8000E941E098091E80083FFE4C157
:1015B0008091970190919801492F50E04A30510550
:1015C00008F0DAC1FA01E059FF4F0C94291F803866
:1015D00021F0823809F0D0C108C080919401909127
:1015E0009501992389F082600FC080919B018F70D3
:1015F000873008F0C1C18093E9008091EB0085FB42
:10160000882780F91092E9009091E800977F9093E5
:10161000E8008093F1001092F10070C1282F2D7F17
:1016200009F0AAC1882319F0823061F0A5C1809128
:101630009901813009F0A0C1933009F080E08093D6
:1016400095012EC08091990181112AC080919B0142
:101650008F702FEF280F263008F08EC18093E9009D
:101660002091EB0020FF1CC0933021F48091EB000F
:10167000806214C09091EB0090619093EB0021E0A8
:1016800030E0A90102C0440F551F8A95E2F740934C
:10169000EA001092EA008091EB0088608093EB00F2
:1016A0001092E9008091E800877F8093E8000E9413
:1016B0001E0962C1811160C1109199011F7780914B
:1016C000E3008078812B8093E3008091E800877F9E
:1016D0008093E8000E941E098091E80080FFFCCF03
:1016E0008091E30080688093E300111102C082E0E2
:1016F00001C083E08093A1013FC18058823008F08F
:101700003BC12091990130919A012C3D53E035075E
:1017100079F583E08A838AE289834FB7F894DE0102
:10172000139620E03EE051E2E32FF0E050935700A3
:10173000E49120FF03C0E295EF703F5FEF708E2FC2
:1017400090E0EA3010F0C79601C0C0968D939D934B
:101750002F5F243149F74FBF8091E800877F809346
:10176000E8006AE270E0CE0101960E947209B4C0FE
:1017700080919B0190919C01432F55274330510547
:10178000A9F068F44130510509F405C14230510512
:1017900009F0F2C084E790E0EEE0F2E04BC04132A5
:1017A000510529F14232510589F1E6C0C901992755
:1017B00081309105A1F058F0029709F0DDC0E4E90D
:1017C000F2E0E4918E2F90E0E4E9F2E030C0E6ED43
:1017D000F2E0E4918E2F90E0E6EDF2E028C0ECEA32
:1017E000F2E0E4918E2F90E0ECEAF2E020C0843049
:1017F000910508F0C1C0880F991FFC01E35EFE4F00
:101800000190F081E02D89E090E014C084309105D2
:1018100008F0B2C0FC01EE0FFF1FEB5EFE4F01901F
:10182000F081E02DDC01AF5EBE4F8C9190E000971F
:1018300009F4A2C02091E800277F2093E8002091BE
:101840009D0130919E012817390708F4C90140E035
:10185000009789F12091A101222309F43DC0253090
:10186000D9F12091E80023FD37C02091E80022FD46
:101870002FC02091E80020FFEBCF4091F300209192
:10188000F20030E0342B009759F02830310540F455
:1018900044914093F100319601972F5F3F4FF3CF72
:1018A00041E02830310509F040E02091E8002E7732
:1018B0002093E800CDCF4111CDCF0AC08091A10186
:1018C000882351F0853041F08091E80083FD04C009
:1018D0008091E80082FFF2CF8091E8008B778093BF
:1018E000E8004AC0803809F047C08091E800877F4F
:1018F0008093E800809196018093F1008091E80048
:101900008E77D3CE811138C08091990190919A0140
:10191000992702978CF58091E800877F8093E800F3
:1019200010919901109396010E941E09111106C091
:101930008091E30087FD02C081E001C084E08093D4
:10194000A10142E061EC81E00E943D0942E061ECCE
:1019500082E00E943D0942E261EC85E00E943D097F
:1019600042E261EC83E00E943D0942E260EC84E0E7
:101970000E943D098091A1018091E80083FF10C081
:101980008091E800877F8093E8008091EB0080627F
:101990008093EB0005C082E190E0E2E8F2E04ACFFC
:1019A000AA96E3E00C94B11E1F920F920FB60F920D
:1019B00011242F933F934F935F936F937F938F9354
:1019C0009F93AF93BF93CF93DF93EF93FF93C09118
:1019D000E900CF708091EC00D82FD17080FDD0E865
:1019E0001092E9008091F000877F8093F000789456
:1019F0000E94020A1092E9008091F00088608093B2
:101A0000F000CD2BCF70C093E900FF91EF91DF91F3
:101A1000CF91BF91AF919F918F917F916F915F9186
:101A20004F913F912F910F900FBE0F901F901895DF
:101A3000E8EDF0E080818E7F80831092E2001092CA
:101A4000DA001092E100A0EEB0E08C9181608C93FE
:101A500080818F77808319BCA7EDB0E08C918E7F59
:101A60008C9380818F7E8083109270010895A0E016
:101A7000B0E0EDE3FDE00C94901EC8EDD0E088816D
:101A80008F7E8883E7EDF0E080818160808384E051
:101A900082BF81E08093700188818E7F888302EE0F
:101AA00010E0F80110821092DA0081EEC82ED12CDD
:101AB000F601108288818F77888388818068888387
:101AC00088818F7D888319BC1092A10110929601A4
:101AD000109295011092940190EEE92EF12CF701ED
:101AE00080818B7F808388818160888342E060E091
:101AF00080E00E943D09F60180818E7F8083F8019D
:101B0000808181608083808188608083F70180810B
:101B10008E7F8083888180618883CDB7DEB7E8E0DF
:101B20000C94AC1E1F920F920FB60F9211242F939C
:101B30003F934F935F936F937F938F939F93AF9355
:101B4000BF93EF93FF938091E10082FF09C08091E2
:101B5000E20082FF05C08091E1008B7F8093E1006D
:101B60008091DA0080FF2AC08091D80080FF26C0D3
:101B70008091DA008E7F8093DA008091D90080FF17
:101B800018C080E189BD82E189BD09B400FEFDCFA6
:101B900081E08093A1018091700181110FC00E94AA
:101BA000180D0E94370D8091E20084608093E2005E
:101BB00005C019BC1092A101109270018091E10042
:101BC00080FF17C08091E20080FF13C08091E20087
:101BD0008E7F8093E2008091E20080618093E2003A
:101BE0008091D80080628093D80019BC85E08093F2
:101BF000A1018091E10084FF30C08091E20084FF68
:101C00002CC080E189BD82E189BD09B400FEFDCF11
:101C10008091D8008F7D8093D8008091E1008F7EE5
:101C20008093E1008091E2008F7E8093E2008091BA
:101C3000E20081608093E20080919601882311F098
:101C400084E007C08091E30087FD02C081E001C00D
:101C500083E08093A1018091A1018091E10083FF45
:101C600027C08091E20083FF23C08091E100877F3D
:101C70008093E10082E08093A1011092960180910F
:101C8000E1008E7F8093E1008091E2008E7F80935F
:101C9000E2008091E20080618093E20042E060E037
:101CA00080E00E943D098091F00088608093F00000
:101CB000FF91EF91BF91AF919F918F917F916F9124
:101CC0005F914F913F912F910F900FBE0F901F90FA
:101CD00018952091E4003091E50095E64091EC00E4
:101CE000842F817040FF23C08091E80080FD1DC0DB
:101CF0008091A101882399F0853099F08091EB00C3
:101D000085FD11C04091E4005091E500241735078E
:101D100029F3915011F09A01E1CF84E0089582E017
:101D2000089583E0089581E0089580E0089540914A
:101D3000E80042FFDDCF0895EF92FF920F931F93CB
:101D4000CF93DF937C018B010E94690E811119C032
:101D5000E70101151105A1F08091E80085FD0AC099
:101D60008091E8008E778093E8000E94690E8823B6
:101D700081F307C089918093F10001501109E9CFE7
:101D800080E0CDB7DEB7E6E00C94AE1ECF93209195
:101D9000A101243011F5C091E900CF703091EC0021
:101DA000232F217030FD20E8C22B23E02093E9008F
:101DB0002091E80020FF0EC040E050E060E270E0BB
:101DC0000E949C0E811110929F018091E8008E77F5
:101DD0008093E800CF70C093E900CF910895A6E406
:101DE000B0E0E5EFFEE00C948A1E85B7806885BF01
:101DF00085B7806885BF84B7877F84BF0FB6F894A6
:101E0000A8958091600088618093600010926000C6
:101E10000FBE90E080E80FB6F89480936100909335
:101E200061000FBE81EC92E190936B0180936A0197
:101E30000E94180D0E94370D8091E200846080930B
:101E4000E20078948091A1018823A1F01091E9002B
:101E50001F709091EC00892F817090FD80E8182B05
:101E60001092E9008091E80083FD0E94020A1F7031
:101E70001093E90082E084BD93E095BD9AEF97BD91
:101E800080936E000E94AA0390E0909310018093CB
:101E90000F010E94E5040E942B05E4EAF1E0A8EBA3
:101EA000B1E011921D9221E0E23BF207D1F78EE002
:101EB00090E00E942F1F8093A2019093A301FC0148
:101EC0000E9611928E179F07E1F789EA80938000A2
:101ED00089E08093810024982C983F988AB18F7C68
:101EE0008AB96E98479A8BB180638BB9769A8FE0E6
:101EF00090E00E94C51E6093B2017093B30180937D
:101F0000B4019093B50167708FEF689FB001112401
:101F10007595679575956795772770938900609398
:101F2000880070938B0060938A0070938D0060939B
:101F30008C000E94210480E090E00E94CB1E863E2F
:101F40009E4F09F472C066EE7EEF80E090E00E9442
:101F5000FF1E60E082E090E00E94E11E60E083E00E
:101F600090E00E94E11E1092B60160E074E184E00E
:101F700090E00E94FF1E60E086E090E00E94E11E7B
:101F80006FEF87E090E00E94E11E40E050E0BA0170
:101F900088E090E00E94F31E60E084E290E00E94FE
:101FA000E11E60E087E190E00E94E11E60E08CE0CD
:101FB00090E00E94E11E60E08DE090E00E94E11E52
:101FC00019821A821B821C821D821E821F82188621
:101FD00048E050E068E170E0CE0101960E94D11E19
:101FE00040E050E0BA0180E290E00E94F31E1092BF
:101FF000B2011092B3011092B4011092B50184E0C5
:102000008093B2014091B2015091B3016091B4014B
:102010007091B5018FE090E00E94F31E40E050E027
:10202000BA0183E190E00E94F31E82E090E00E94FA
:10203000BD1E8093C60184E090E00E94CB1E909369
:102040006F0180936E0183E090E00E94BD1E0E94AC
:1020500063198091B7010E94800387E091E090931B
:1020600095028093940208E110E08091A1018530EF
:1020700009F05AC030E4B32E46ECE42E41E0F42ED1
:1020800050E1C52E62E1D62E8091A101853009F084
:1020900045C08091A101843009F1109298020FB6D9
:1020A000F894A895009360000FBEB092600083B7CB
:1020B000817F846083BF83B7816083BF7894889574
:1020C00083B78E7F83BF0FB6F894A8958091600088
:1020D000886180936000109260000FBE809195012E
:1020E000882391F20E94AA0390E0909310018093BC
:1020F0000F010E94E5040E942B05E8EBF1E011922C
:10210000EE16FF06E1F70E948217E8EBF1E08191FD
:10211000811116C2EE16FF06D1F7B6CF10927101EB
:102120000E9489190E94FE1C0E94821727ECC22E71
:1021300021E0D22EA8EBB1E0F60191918D91892793
:1021400021E0E53DF20719F08823B9F305C08111BC
:1021500003C00E94591855C098EB892E91E0992E22
:10216000F12CF40171904F01F601A080A724B9F180
:10217000E12CBB24B394662463948A2D8B2141F116
:102180002296EFAE22972396FFAE23970E94221C41
:1021900025969FAF8EAF259726966FAE269791E036
:1021A000872D8B2109F490E027969FAF27972296E1
:1021B0004FAD229723965FAD239724966FAD24975A
:1021C00025967FAD259726968FAD26970E94C5024E
:1021D000E394BB0CF6E0EF12D0CFF6017082F394DB
:1021E000FFEFCF1ADF0A2EE0F212BBCF8FB7F894C1
:1021F0004091990250919A0260919B0270919C02C9
:102200008FBF80919102882369F00E94221C209147
:10221000D5013091D601821B930B8F3F9F4710F45D
:102220000E940B1DB0908B02C0908C02F0908D022A
:10223000D0908E02E0908F0210928C0210928D024C
:1022400010928E0210928F02C11003C0FF2009F479
:1022500047C08091890290918A020E94131C9C01C0
:1022600090918402992309F483C125313105C0F18D
:102270009F3F19F09F5F90938402CC2061F00E94F1
:10228000711D1C1414F491E001C09FEF899F802DF3
:10229000112480938C02FF2061F00E94711D1F1495
:1022A00014F09FEF01C091E0899F802D112480934D
:1022B0008D0280918C02882399F0A0908D02AA2033
:1022C00079F00E94941D811101C081E080938C02FD
:1022D0008A2D0E94941D811101C081E080938D029E
:1022E000D11003C0EE2009F447C08091870290917D
:1022F00088020E94131C9C0190918502992309F485
:102300003BC125313105C0F19F3F19F09F5F90938C
:102310008502DD2061F00E94511D1D1414F491E02E
:1023200001C09FEF899F802D112480938E02EE20A3
:1023300061F00E94511D1E1414F09FEF01C091E046
:10234000899F802D112480938F0280918E02882393
:1023500099F0A0908F02AA2079F00E94941D81111B
:1023600001C081E080938E028A2D0E94941D81110C
:1023700001C081E080938F0280918B028B111AC083
:1023800080918C02882311F08C1114C080918D02F1
:10239000882311F0F8120EC080918F02882311F06B
:1023A000E81208C090918E02992331F081E0D91291
:1023B00004C002C081E001C080E080FD15C08091B2
:1023C0008C0281110FC080918D0281110BC0809110
:1023D0008E02811107C081E090918F02911103C09C
:1023E00080E001C081E080FD0E942A1DB0928B0236
:1023F000C0928C02F0928D02D0928E02E0928F02F7
:102400000E94FE1C9091D701891769F08093D70133
:102410008FB7F8944091990250919A0260919B0273
:1024200070919C028FBF8091A101843009F01DCE74
:102430008093E9008091E80082FF17CE8091E80048
:1024400085FF24C00E94690E81111EC080E2E82E23
:10245000F12C6E01F1E2CF0ED11C09C08091F10088
:10246000F60181936F01F1E0EF1AF10869F08091B4
:10247000E80085FDF3CF8091E8008B778093E8003A
:102480000E94690E882399F391E001C090E0809149
:10249000E8008B778093E800992309F4E6CD89A1C1
:1024A000853009F447C048F4813001F190F0823062
:1024B00009F4DBCD843029F13FC08730C9F1D0F178
:1024C0008830C1F18E3FC1F5898393E09A838B8375
:1024D00013C019828CE0E5E2F1E0DE011296019072
:1024E0000D928A95E1F78EEF8D8706C080939F014C
:1024F00084E089838EEF8A83CE0101960E94C60E06
:10250000B4CD80919F01882309F4AFCD8AA18111B8
:1025100004C08BA10E944A19A8CD81E090E00BA0D5
:1025200002C0880F991F0A94E2F70E9422199DCDDC
:1025300085E003C084E001C08FEF0E94191D95CD96
:10254000C9BCD9BC09B400FEFDCF8091D8008F7DF5
:102550008093D8008091E00082608093E0008091B9
:10256000E00081FDFCCF109271010E9489198CCD91
:10257000232B09F07FCEB4CE2139314008F0C6CEEE
:10258000FBCE80E0089590916E0192FF10C041E073
:10259000282F2471243009F040E031E0282F2871E1
:1025A000283009F030E0431711F02CE0822793FF28
:1025B00010C041E0282F2471243109F040E031E0BF
:1025C000282F2871283109F030E0431711F02CE052
:1025D000822730916F0130FF10C051E0282F217108
:1025E000213009F050E041E0282F2871283009F00F
:1025F00040E0541711F029E0822731FF10C041E07C
:10260000282F2171213109F040E031E0282F287175
:10261000283109F030E0431711F029E0822794FDBA
:10262000877E08958238910569F1B0F48133910570
:1026300009F475C048F48932910509F467C08A32FB
:10264000910509F471C008958533910509F459C0C5
:1026500089339105B9F00895833E910589F138F4E5
:10266000803E9105D1F0823E910529F10895863E84
:102670009105C9F1873E9105D9F1843E910509F094
:102680006CC027C020916E0120FD57C021FD55C0B0
:1026900020916F0123FD5BC0089580916E0180FD44
:1026A00048C080916F0180FF48C080916E0184FD19
:1026B00046C083EE51C080916E0182FF3CC0F5CFD1
:1026C00080916E0182FD37C080916F0180FD35C021
:1026D000ECCF80916F0181FF36C080916E0184FD47
:1026E0002EC087EE39C080916E0183FF2AC0F5CFDE
:1026F00080916E0183FD25C080916F0181FD23C013
:10270000ECCF80916E0185FD22C01FC080916E01CB
:1027100085FD1BC080916F0183FF19C00AC08091A5
:102720006E0186FD16C017C080916E0186FD13C034
:1027300010C089E311C082EE0FC080EE0DC080E0B2
:102740000BC086EE09C084EE07C085E305C089E2B0
:1027500003C08AE201C081E390E00895209138022D
:102760009091FF0157E02917A9F030E0529FF00146
:10277000539FF00D1124E050FE4F7181761306C077
:102780007081781303C07581741306C02F5F3F4FAB
:102790002770E9CF80E0089581E008957E30B0F49D
:1027A0006630A0F48330A0F494E5899FF0011124F1
:1027B00086E0789FE00DF11D1124E60FF11DEE0F6C
:1027C000FF1FE652FD4F85919491089580E001C06E
:1027D00081E090E008951F93CF93DF930E9412133E
:1027E000EC01C11580E5D807E8F5C11590E4D907DB
:1027F00008F0A8C0C03ED10530F5CD3CD10508F0A9
:1028000094C0C83AD10578F4C53AD10508F083C020
:10281000C130D10509F47CC008F4F2C0C430D10540
:1028200008F0F1C0EDC0C33CD10508F0E9C0C85ABA
:10283000D0E0CC0FDD1FCC5CDE4F0990D881C02DDD
:10284000CE019464E1C0C11580E2D80708F0CBC086
:10285000C11591E0D90708F06BC0C83ED10508F456
:10286000D2C0CEC0C03682E5D80728F5C03492E584
:10287000D90708F079C0C03282E5D80708F06CC0EB
:10288000C11592E5D90708F481C04C2F46954695AD
:1028900080E2489FA0011124C37021E030E0C9010B
:1028A00002C0880F991FCA95E2F7EA01C82BD92BFD
:1028B000CE019D68A9C0C03A82E5D807B8F48C2F34
:1028C0008F71C03892E5D90708F07BC08695869550
:1028D00090E2899F90011124C37081E090E002C0D2
:1028E000880F991FCA95E2F79A6868C0C03C82E5D4
:1028F000D80708F46DC0C03E92E5D90708F080C043
:10290000CF71DD27DC2FCC27CE01806F906A7CC091
:1029100081E090E079C0C55AD0E0CF5CDE4F88817D
:10292000C82FD0E0CE0190646FC0CE0190656CC01E
:102930008D2F0E94C312182FCE0199270E941213C7
:102940001F715CC0CE0199270E941213CC27DF7043
:10295000D06A8C2B9D2B58C0CF71D0E0DC2FCC27B8
:10296000CE01816F906A50C08C2F8F7186958695AD
:1029700090E2899F90011124C37081E090E002C031
:10298000880F991FCA95E2F79C6818C08C2F8F7129
:102990000E94C31295E0D695C7959A95E1F7CF703E
:1029A000D0E0DC2FCC27282F30E084FF05C084E066
:1029B000220F331F8A95E1F7D069CE01822B932B2A
:1029C00023C090E0D82FCC27CE01846F906A1CC022
:1029D0008C2F8F710E94C3128F7190E0D82FCC275B
:1029E000CE01906211C08D2F8F710E94C312182FDB
:1029F000CE0199270E9412131F719062912B04C07F
:102A000080E090E001C0CE01DF91CF911F91089549
:102A100080915A02811110925A02089580959091E6
:102A200071018923809371010895909171018091C2
:102A30009002982B9093D80180915A028823D9F064
:102A4000892B8093D80180910601882331F08091F1
:102A50006E0187FF02C08EE101C086E0EAEDF1E081
:102A600090E0815028F021912223D9F39F5FF9CF84
:102A700091110E94081540E250E06AE372E088ED8F
:102A800091E00E945020892B21F180E2E8EDF1E0F5
:102A9000AAE3B2E001900D928A95E1F7E0919402E9
:102AA000F09195023097A9F080910601882359F0A2
:102AB00080916E0187FF07C08091D8018093D90172
:102AC00086E08093D8010280F381E02D88ED91E0CB
:102AD0000995089590913902809589238093390250
:102AE000282F277069F4981759F090916F0192FF81
:102AF00007C08695869586950E944A1910923902DC
:102B0000089590916F0192FB222720F9281779F000
:102B100080FB92F990936F0160916E0170916F014B
:102B200084E090E00E94FF1E82E00E946A150895F2
:102B3000809138029091FF01891719F08F5F87709B
:102B4000FBCF0895CF93DF938091FE0182958F7024
:102B500009F04EC08091FD01882309F449C080919D
:102B600038024091FF015091F9016091F801C09144
:102B7000FA01D091FB0177E08417D1F190E0789FC2
:102B8000F001799FF00D1124DF01A050BE4F149683
:102B90002C911497222349F111962C91119725130A
:102BA00024C02C91261321C015962C911597211124
:102BB0001CC012962D913C9113972C1B3D0B283C69
:102BC000310598F48091FE018F7080618093FE0141
:102BD000EA5FFD4F80818F708061808388EF91E094
:102BE0000E9438050E94981503C001968770C4CFD3
:102BF000DF91CF910895A4E1B0E0E1E0F6E10C941B
:102C00008C1E8C0186E0F801DE011F9601900D926A
:102C10008A95E1F7F8018481E58098EF892E91E0AB
:102C2000992E9091FC01911120C0882309F463C171
:102C3000EE2009F442C0C8010E946619F82E8823CC
:102C4000E1F187E0F801D40101900D928A95E1F756
:102C50008091FC01813031F48091F8019091F9016B
:102C60000E94AC180E94A21548C1F801D080C18012
:102C7000A280B380F090FD012091FA013091FB0118
:102C8000FF2009F4E7C0A501421B530B483C510546
:102C900008F09DC0882309F430C18091FE01282FDF
:102CA000207F9091F901222361F09C1509F460C006
:102CB000C8010E946619811163C0C8010E943805CD
:102CC0001AC19C1113C09091F8019D110FC0E11021
:102CD0000DC08F7080618093FE0188EF91E00E94AB
:102CE00038058091FE01F801868303C1E1103AC0E6
:102CF00040E06C2D8D2D0E94AE1340E06C2D8D2D8B
:102D00000E94AE13E82E8111F4C0DF86C88A8F8539
:102D100098890E94AC18292F22952F70243020F416
:102D20009F70223028F009C02A50223080F014C051
:102D3000992349F0811107C013C0992321F0F801AC
:102D40009681907F69F0805E883030F409C0803FC2
:102D500038F0815F833020F0C8010E943805EF2CE5
:102D6000FE2CCBC08091FE0181608093FE01C1C02A
:102D70009091F8019D119CCFE1109ACFF80198C075
:102D8000EE2009F49ACF2091FE01822F82958F7058
:102D900090E002978CF08091F8019091F901998769
:102DA0008887BB86AA868091FC018C871D862E872A
:102DB000CE0108960E94380587E0F801A8EFB1E03F
:102DC00001900D928A95E1F70E94A21594C090910E
:102DD000FE01292F207F51F488EF91E00E943805F1
:102DE00087E0F40111928A95E9F783C0882309F4FA
:102DF00084C08091F9018C110CC08091F8018D1173
:102E000008C0E11006C0F8019683C8010E94380589
:102E10006AC0C8010E946619882309F44ECFEE20CB
:102E200009F44BCF2091FE01822F82958F7090E0A4
:102E3000029714F28091F8019091F9019A838983A5
:102E4000BC82AB828091FC018D831E822F83CE01D8
:102E50000196B0CFA21AB30AF8ECAF16B10408F08D
:102E600042C0882309F447C0FE2CEE2009F425CF88
:102E70008091F9018C1129C08091F8018D1125C034
:102E80009091FE0190FD18C0892F82958F70282F98
:102E900030E02115310581F0F80196832F3031059E
:102EA00041F08F5F982F9295907F86818F70892B4C
:102EB0008683C8010E94380587E0F801A8EFB1E0D9
:102EC00001900D928A95E1F718C0C8010E94661919
:102ED000811172CF8091FE0181608093FE01C80153
:102EE0000E9438050AC087E0F40111928A95E9F73B
:102EF00004C0F12C02C0FF24F3948F2D6496ECE003
:102F00000C94A81EA0E0B0E0E8E8F7E10C94901E55
:102F100080910F0190911001892B91F080915D02B9
:102F20008F5F80935D0281110BC00E94AA0390E025
:102F30009093100180930F01892B11F40E942104BA
:102F400004EA11E07801D0E0C0E087E0C82ECC0EA2
:102F50008C2F0E9491048C2D0E9491048C2F0E9432
:102F6000F4048F73F7019081891721F08083DD24A9
:102F7000D39401C0D12C8C2D0E94F4048F73F701DF
:102F80009781891719F0878381E001C080E0D82AF2
:102F9000DD290E94E504CF5FFFEFEF1AFF0AC7307B
:102FA000A1F610926202C0916102CC2309F47DC0A7
:102FB0000E94221C20915F0230916002AC01421BF2
:102FC000530B9A019093600280935F024F3F51052B
:102FD00009F018F4452B19F102C02FEF30E01092E0
:102FE000610210925E02E091A201F091A301AF0193
:102FF000425F5F4F90E030E08081882341F02817E6
:1030000018F010829C2F03C0821B80833C2F3196C6
:10301000E417F50789F73093610290935E02DD2390
:10302000B1F110925E02E091A201F091A3018091B2
:10303000620290916102A8EBB1E0AF01425F5F4F85
:103040006EE1E80128813C91321779F0308131112D
:103050000CC060832C9398819227282F30E0292B75
:1030600081E0232B09F480E091E0319611960F5F07
:103070001F4FE417F50729F78093620290936102CE
:1030800080916202CDB7DEB7E8E00C94AC1E81E01F
:1030900090915E029923A1F38111C3CF0E94221C5B
:1030A0009093600280935F02BCCFD111F7CF80E094
:1030B000EFCFA6E0B0E0EFE5F8E10C94941E0E949B
:1030C000221C8C0180915B0290915C020817190709
:1030D00081F019821A820E94221C682F49815A812C
:1030E000792F80E090E00E94C50210935C0200936B
:1030F0005B022696E4E00C94B01ECF92DF92FF9222
:103100000F931F93CF93DF936C010091B7018091D0
:10311000B601082BC7E0D0E010E0C8010C2E02C0B9
:10312000959587950A94E2F780FD04C02197A8F74A
:10313000F12C09C0FC2EB6018C2F0E94CE130E94E8
:10314000EB13019799F38F2DDF91CF911F910F9181
:10315000FF90DF90CF900895CF93DF93EC010E9412
:103160007D18BE010E94CE130E94EB13DF91CF9118
:103170000895292F9E3078F5863068F590E036E086
:10318000239F800D911D1124682F677023E0969571
:1031900087952A95E1F7FC01EE0FFF1FE80FF91F55
:1031A000ED59FD4F40E050E080E0219130E0062EE7
:1031B00002C0369527950A94E2F721703327042E32
:1031C00001C0220F0A94EAF7822B4F5F5F4F433012
:1031D000510559F7089580E00895292F9E3088F50C
:1031E000863078F590E036E0239F800D911D112404
:1031F000282F277051E001C0550F2A95EAF723E0E8
:10320000969587952A95E1F7FC01EE0FFF1FE80FD1
:10321000F91FED59FD4F20E030E070E04081CB0117
:10322000022E02C0969587950A94E2F781708195E7
:1032300084278523842781932F5F3F4F23303105D7
:1032400069F70895A0E2B0E0E8E2F9E10C94951E78
:103250000E948003182F80919F018823A9F02FEFEF
:1032600080E792E0215080409040E1F700C00000EC
:1032700085E08983812F0E946C038A838EEF8B8384
:10328000CE0101960E94C60E1093B701A096E3E00E
:103290000C94B11E21E030E001C0220F8A95EAF7BC
:1032A00020958091B70182230E942219089521E080
:1032B00030E001C0220F8A95EAF78091B701822B96
:1032C0000E94221908958093B6010895FC0124817B
:1032D0002223D9F0808191810E94AC1892959F7031
:1032E000963079F010F4925001C09A50923068F400
:1032F000803F69F018F4883E40F409C0843F29F407
:1033000006C0883E20F0813F11F080E0089581E002
:10331000089580910601882331F080916E0187FF26
:1033200002C08EE101C086E0EAEDF1E0DF011D920E
:103330008A95E9F780E090E00E94D91C80E090E057
:103340000E94B41C109290020E941515EBE8F2E066
:1033500085E0DF011D928A95E9F7109284021092B0
:103360008502109286020E942A1D0895882321F06A
:103370000E940E150E9415150895882339F090912A
:103380007101892B809371010E94151508956623A0
:1033900009F45CC08D3C21F40E94711D819504C02C
:1033A0008E3C29F40E94711D80938D02C5C08F3C14
:1033B00021F40E94711D819504C0803D29F40E9472
:1033C000711D80938C02B8C0893D19F40E94511D73
:1033D00005C08A3D31F40E94511D819580938E0273
:1033E000ABC08B3D21F40E94511D819504C08C3DE2
:1033F00029F40E94511D80938F029EC09FE2980F76
:10340000983078F421E030E0A90102C0440F551F44
:103410009A95E2F7CA0190918B02892B80938B02D7
:103420008BC08D3D21F48091860281600CC08E3D61
:1034300021F480918602826006C08F3D09F07CC035
:103440008091860284608093860276C08D3C39F438
:1034500090918D0297FF35C010928D0259C08E3C1D
:1034600029F490918D021916BCF32BC090918C0217
:103470008F3C29F497FF25C010928C0249C0803DF3
:1034800019F41916CCF31DC090918E02893D29F4D0
:103490001916BCF410928E023BC08A3D19F497FFB6
:1034A00010C0F8CF8B3D39F490918F0297FF09C07F
:1034B00010928F022DC08C3D21F490918F0219162D
:1034C000BCF39FE2980F983080F421E030E0A9012E
:1034D00002C0440F551F9A95E2F7CA01809590915A
:1034E0008B02892380938B0213C08D3D21F4809140
:1034F00086028E7F0BC08E3D21F4809186028D7FE7
:1035000005C08F3D29F4809186028B7F80938602CF
:1035100080918C02811106C080918D02811102C0C0
:103520001092840280918E02811106C080918F02D8
:10353000811102C0109285020E942A1D08958823DD
:1035400009F460C0823869F40E94FE1C81FF5AC0F1
:1035500069E388ED91E00E947F1C0E94151569E3E4
:103560000EC0833899F40E94FE1C80FF4BC063E5B7
:1035700088ED91E00E947F1C0E94151563E588ED9F
:1035800091E00E94571C0E9415150895843869F433
:103590000E94FE1C82FF36C067E488ED91E00E9425
:1035A0007F1C0E94151567E4EACF9CEF980F913AB3
:1035B00010F4682FE4CF90E2980F983050F48770A1
:1035C00091E001C0990F8A95EAF7892F0E940E15A4
:1035D000DACF9BE5980F933028F480E090E00E94CA
:1035E000D91C089598E5980F9B3128F480E090E06D
:1035F0000E94B41C089593E3980F933118F460E08F
:103600000E94C7190895CF93882309F4BDC0C82F1D
:103610008238B1F40E94FE1C81FDB6C069E388EDDA
:1036200091E00E947F1C0E9415152FEF87EE93E01A
:10363000215080409040E1F700C0000069E317C0CE
:103640008338E1F40E94FE1C80FD9EC063E588ED96
:1036500091E00E947F1C0E9415152FEF81EE94E0EF
:10366000215080409040E1F700C0000063E588ED04
:1036700091E00E94571C0E94151586C08438B1F451
:103680000E94FE1C82FD80C067E488ED91E00E94EC
:103690007F1C0E9415152FEF81EE94E02150804091
:1036A0009040E1F700C0000067E4E1CF8CEF8C0FA1
:1036B000813AB8F5809106018823E1F080916E018E
:1036C00087FF18C0EC2FE695E695E695F0E0E85206
:1036D000FE4F8281282F30E04C2F477081E090E030
:1036E00002C0880F991F4A95E2F782239323892B02
:1036F00059F411C0EAEDF1E08191C81729F021E0F9
:10370000E03EF207C9F707C06C2F88ED91E00E94F8
:10371000571C0E9415156C2F88ED91E00E947F1CAC
:10372000AACF80E28C0F883068F4C77081E090E007
:1037300001C0880FCA95EAF790917101892B809397
:10374000710199CFEBE5EC0FE33040F4F0E0EF5C72
:10375000FE4F808190E00E94D91C16C0E8E5EC0F76
:10376000EB3150F4F0E0EE0FFF1FEC5CFE4F808178
:1037700091810E94B41C08C083E38C0F833120F434
:1037800061E08C2F0E94C719CF9108958091730139
:1037900008959B019091A1019430F1F48F70809372
:1037A000E9008FEF9091E800815095FD06C095EDFE
:1037B0009A95F1F700008111F5CF8091E80085FF1F
:1037C0000BC0BA01C90140E050E00E949C0E8091FC
:1037D000E8008E778093E800089578941F920F9206
:1037E0000FB60F9211248F939F93AF93BF93809145
:1037F000990290919A02A0919B02B0919C0201962D
:10380000A11DB11D8093990290939A02A0939B02EF
:10381000B0939C02BF91AF919F918F910F900FBE7B
:103820000F901F9018959C014FB7F89480919902C2
:1038300090919A02A0919B02B0919C024FBF821B73
:10384000930B08952FB7F8948091990290919A0262
:10385000A0919B02B0919C022FBF08951F920F92DE
:103860000FB60F9211248F939F93AF93BF938091C4
:103870009802811113C08091990290919A02A091AF
:103880009B02B0919C024196A11DB11D80939902AB
:1038900090939A02A0939B02B0939C02BF91AF9128
:1038A0009F918F910F900FBE0F901F9018952091B0
:1038B00006012223C9F020916E0127FF15C0262F93
:1038C0002695269526952E31C8F4FC01E20FF11DB0
:1038D000677081E090E001C0880F6A95EAF78095F3
:1038E0009281892382830895FC01069622816213C6
:1038F00001C012823196E817F907C1F708952091A7
:1039000006012223C1F020916E0127FF14C0262F4B
:103910002695269526952E3130F5FC01E20FF11DF6
:10392000677081E090E001C0880F6A95EAF79281A4
:10393000892B82830895FC0132962FEF30E041916C
:10394000641789F02F3F19F4411101C0232F3F5F05
:103950003630A9F72F3F39F0FC01E20FF11D27FDAA
:10396000FA95628308950895A3E0B0E0EAEBFCE1E4
:103970000C94961E209196023091970228173907D1
:10398000A1F09093970280939602E0919402F091B7
:103990009502309751F024E029839B838A83068027
:1039A000F781E02DCE01019609952396E2E00C9473
:1039B000B21EA3E0B0E0EFEDFCE10C94961E209166
:1039C00092023091930228173907A1F09093930245
:1039D00080939202E0919402F0919502309751F019
:1039E00023E029839B838A830680F781E02DCE0123
:1039F000019609952396E2E00C94B21EE0919402A0
:103A0000F0919502309729F00190F081E02D099511
:103A1000089580E0089580919102882349F0809173
:103A200090028D7D809390020E9415151092910254
:103A30000895A0E2B0E0EFE1FDE10C94961E9FEF47
:103A400099838A83CE0101960E94C60EA096E2E079
:103A50000C94B21E0E94221C20918C02211104C0E1
:103A600020918D02222321F090938A028093890273
:103A700020918E02211104C020918F02222321F077
:103A80009093880280938702E0919402F0919502CE
:103A9000309731F00480F581E02D8BE892E00995B4
:103AA00008958091860280FD18C081FD14C082FDBA
:103AB00016C080918502882381F08C3380F427E042
:103AC000829FC00111246CE370E00E94151F862FB5
:103AD000672B19F005C083E0089581E0089587E021
:103AE00008958091860280FD17C081FD17C082FD78
:103AF00019C080918402882399F08C3398F428E3CC
:103B0000829FC00111246CE370E00E94151F862F74
:103B1000672B49F481E008958EE008958CE10895C3
:103B200088E0089588E30895282F35EB2303C0012A
:103B3000112497FF03C08058910902C080589F4FFD
:103B4000892F08951092B9008CE08093B8000895F1
:103B5000A0E0B0E0EEEAFDE10C948D1EB82EEB0182
:103B60000E94221C6C01C431D10558F0CF3F8FEF69
:103B7000D80759F0CE0164E170E00E94721E7B010B
:103B800007C0EE24E394F12C03C025E0E22EF12CD3
:103B900084E8A82E94EA992E1092BC009092BC0062
:103BA0000E94221C8C018091BC0087FD07C0C801C7
:103BB0000E94131CE816F906B0F729C08091B900DD
:103BC000887F883041F08091B900887F803119F07A
:103BD0000FEF1FEF1EC0B092BB00A092BC000E946E
:103BE000221C8C018091BC0087FD07C0C8010E9487
:103BF000131CE816F906B0F70AC08091B900887F57
:103C0000883111F0803421F700E010E00EC00EEF93
:103C10001FEFCF3F8FEFD80709F4BECFC6010E9438
:103C2000131CC817D90708F0B7CFC801CDB7DEB746
:103C3000EBE00C94A91E0F931F93CF93DF93EB013E
:103C40008093BB0084E88093BC000E94221C8C01FE
:103C50008091BC0087FD0DC0CF3F8FEFD807C1F327
:103C6000C8010E94131CC817D90790F78EEF9FEF69
:103C70000CC02091B900287F81E090E0283211F437
:103C800080E090E0919581959109DF91CF911F910E
:103C90000F9108950F931F93CF93DF93EC0184E866
:103CA0008093BC000E94221C8C018091BC0087FD87
:103CB0000DC0CF3F8FEFD807C1F3C8010E94131C7E
:103CC000C817D90790F78EEF9FEF03C08091BB0014
:103CD00090E0DF91CF911F910F91089584E9809337
:103CE000BC000895AA1BBB1B51E107C0AA1FBB1F44
:103CF000A617B70710F0A61BB70B881F991F5A9578
:103D0000A9F780959095BC01CD0108952F923F921F
:103D10004F925F926F927F928F929F92AF92BF92DB
:103D2000CF92DF92EF92FF920F931F93CF93DF9387
:103D3000CDB7DEB7CA1BDB0B0FB6F894DEBF0FBEE4
:103D4000CDBF09942A88398848885F846E847D8431
:103D50008C849B84AA84B984C884DF80EE80FD8033
:103D60000C811B81AA81B981CE0FD11D0FB6F894A9
:103D7000DEBF0FBECDBFED010895F999FECF92BD14
:103D800081BDF89A992780B50895A6E1B0E044E096
:103D900050E00C94071FA8E1B0E042E050E00C9422
:103DA000071FDC01A40FB51F4150504048F0CB0164
:103DB000840F951F2E910E94E21E41505040D0F773
:103DC0000895262FF999FECF92BD81BDF89A0197EB
:103DD00000B4021639F01FBA20BD0FB6F894FA9A53
:103DE000F99A0FBE08950396272F0E94E21E0E94A3
:103DF000E11E252F0E94E21E242F0C94E21E019644
:103E0000272F0E94E21E0C94E11EDC01CB01FC0175
:103E1000F999FECF06C0F2BDE1BDF89A319600B423
:103E20000D9241505040B8F7089597FB072E16F4B5
:103E3000009407D077FD09D00E94721E07FC05D0C0
:103E40003EF4909581959F4F0895709561957F4FB1
:103E50000895EE0FFF1F0590F491E02D09940F9344
:103E60001F93CF93DF938230910510F482E090E0AE
:103E7000E0919F02F091A00220E030E0A0E0B0E0ED
:103E8000309719F1408151810281138148175907F8
:103E9000C8F08417950769F4109731F012960C93C7
:103EA000129713961C9327C000939F021093A002B1
:103EB00022C02115310519F04217530718F49A0151
:103EC000BD01EF01DF01F801DBCF21153105F9F06C
:103ED000281B390B2430310580F48A819B816115C0
:103EE000710521F0FB019383828304C09093A002AB
:103EF00080939F02FE01329644C0FE01E20FF31F41
:103F00008193919322503109398328833AC02091BB
:103F10009D0230919E02232B41F4209102013091A9
:103F2000030130939E0220939D0220910001309165
:103F300001012115310541F42DB73EB7409104012F
:103F400050910501241B350BE0919D02F0919E02DA
:103F5000E217F307A0F42E1B3F0B2817390778F060
:103F6000AC014E5F5F4F2417350748F04E0F5F1FBF
:103F700050939E0240939D028193919302C0E0E092
:103F8000F0E0CF01DF91CF911F910F910895CF9372
:103F9000DF93009709F481C0FC01329713821282EB
:103FA000A0919F02B091A002109781F420813181ED
:103FB000820F931F20919D0230919E02281739078E
:103FC00051F5F0939E02E0939D0267C0ED0120E061
:103FD00030E0CE17DF0740F44A815B819E01411536
:103FE0005105F1F0EA01F5CFD383C28340815181BD
:103FF000840F951FC817D90759F488819981840FB8
:10400000951F0296918380838A819B81938382830B
:104010002115310529F4F093A002E0939F023DC0E1
:10402000E901FB83EA8349915991C40FD51FEC172D
:10403000FD0761F480819181840F951F0296E9014B
:1040400099838883828193819B838A83E0E0F0E077
:1040500012968D919C911397009719F0FD01DC0148
:10406000F7CF8D919C9111979D012E5F3F4F820F4D
:10407000931F20919D0230919E022817390769F401
:10408000309729F41092A00210929F0202C013826E
:104090001282B0939E02A0939D02DF91CF9108956A
:1040A000FB01DC0104C08D910190801921F4415085
:0E40B0005040C8F7881B990B0895F894FFCF75
:1040BE000000A102200001C61BDE09D709D009208D
:1040CE00004422476DCA01A8016101F400200239A3
:1040DE00025902720244774767712F52764C65651A
:1040EE0000818283E200E900EA00B500B600B70065
:1040FE00CD008301CC008A0192019401210223029A
:10410E0024022502260227022A02B300B4006F0001
:0A411E0070009F01CB019F02A00278
:00000001FF
